:100000000C9479000C9410090C94E9080C94A1004C
:100010000C94A1000C94A1000C94A1000C94A100DC
:100020000C94A1000C94A1000C94A1000C94ED027E
:100030000C94A1000C94A1000C94A1000C94A100BC
:100040000C9497100C94A1000C94730A0C944D0A14
:100050000C94A1000C94A1000C94A1000C94A1009C
:100060000C9466010C94A1005816CC174018EA189D
:10007000481634197119FD04380573058005A40567
:10008000C805030610064B06420DA60D5F0D550D63
:10009000790D830D930D00000000240027002A0035
:1000A00000000000250028002B00000000002300B5
:1000B00026002900040404040404040402020202C9
:1000C000020203030303030301020408102040801B
:1000D000010204081020010204081020000000089A
:1000E00000020100000304070000000000000000FF
:1000F000051A11241FBECFEFD8E0DEBFCDBF26E02A
:10010000A4E3B4E001C01D92A43DB207E1F714E0FE
:10011000A0E0B1E0E8E2F4E402C005900D92A4335F
:10012000B107D9F710E0C9E7D0E004C02197FE017C
:100130000E942A1CC837D107C9F70E94E1100C940D
:1001400012220C94000085ED8093BC008091BC00CD
:1001500084FDFCCF10928404089540915E04262F04
:1001600030E0240F311D21323105DCF4209184046C
:100170002430C9F4FC0180E090E0861758F43091F7
:100180005E042191DC01A45CBB4FA30FB11D2C9335
:100190000196F3CF80915E04680F60935E0480E067
:1001A000089581E0089582E0089508958FEF9FEF0C
:1001B00008958FEF9FEF089580913B0490E0919513
:1001C000819591090895CF93DF9300D0CDB7DEB725
:1001D000CB01642F49835A830E94AD004981842F4B
:1001E0005A81952F0F900F90DF91CF910895CF9363
:1001F000DF931F92CDB7DEB7698361E0CE01019630
:100200000E94AD0081E090E00F90DF91CF910895C2
:10021000833081F028F4813099F08230A1F0089584
:100220008730A9F08830B9F08430D1F48091800013
:100230008F7D03C0809180008F7780938000089528
:1002400084B58F7702C084B58F7D84BD0895809179
:10025000B0008F7703C08091B0008F7D8093B00095
:100260000895FC0190819C3080F5818128E830E080
:10027000281B310987FD3395220F331F220F331FAF
:10028000621773077CF0828128E532E0281B310970
:1002900087FD3395220F331F220F331F6217730719
:1002A0000CF49B0122503109220F331F4FB7F894F1
:1002B000892F90E0FC01EE0FFF1F8E0F9F1FFC01A6
:1002C000E85BFA4F328321834FBF08951F920F924C
:1002D0000FB60F9211242F933F934F935F936F9319
:1002E0007F938F939F93AF93BF93EF93FF938091EF
:1002F000B900887F803609F49CC068F5883209F41B
:100300005BC090F4803109F454C038F4882309F4B8
:10031000F6C0883009F44DC0F6C0883109F44CC0ED
:10032000803209F45DC0EFC0803409F468C048F43D
:10033000803309F455C0883309F0E5C08093830405
:10034000D8C0803509F44FC0883509F45DC08834C1
:1003500009F0D9C0D6C0883909F4C7C0A8F48837D5
:1003600009F467C038F4883609F463C0803709F4AB
:1003700060C0C9C0883809F4B8C0803909F45FC0CA
:10038000803809F0C0C05BC0803B09F486C038F4F7
:10039000803A09F466C0883A09F47FC0B4C0803C52
:1003A00009F4A7C0883C09F4A4C0883B09F48AC0BA
:1003B000AAC08091A90410C09091A8048091A704BC
:1003C000981770F5E091A80481E08E0F8093A8043F
:1003D000F0E0E957FB4F80818093BB0085EC86C03D
:1003E000809383048EC0E091A80481E08E0F8093F7
:1003F000A8048091BB00F0E0E957FB4F8083909107
:10040000A8048091A7046EC0E091A80481E08E0F3B
:100410008093A8048091BB00F0E0E957FB4F8083F4
:100420008091860481116DC081E08093850484EA07
:1004300061C083E08093840410928204CFCF8091C6
:100440008204803208F051C0E091820481E08E0F76
:10045000809382048091BB00F0E0EE59FB4F8083D3
:10046000BDCF85EC8093BC001092840480918204FF
:10047000803230F4E0918204F0E0EE59FB4F1082BC
:100480006091820470E0E0916004F091610482E682
:1004900094E009951092820436C084E0809384042D
:1004A00010925F0410925E04E0915C04F0915D0490
:1004B000099580915E04811105C081E080935E04FE
:1004C00010923C04E0915F0481E08E0F80935F0402
:1004D000F0E0E45CFB4F80818093BB0090915F046F
:1004E00080915E04981708F479CF85E88093BC006A
:1004F0000AC085EC8093BC001092840404C0109262
:1005000083040E94A300FF91EF91BF91AF919F914F
:100510008F917F916F915F914F913F912F910F90AC
:100520000FBE0F901F901895CF93DF93282F30E0C8
:10053000F901E452FF4F8491F901E853FF4FD49140
:10054000F901EC54FF4FC491CC2391F081110E942A
:100550000801EC2FF0E0EE0FFF1FE655FF4FA591CD
:10056000B491EC91ED2381E090E021F480E002C0B1
:1005700080E090E0DF91CF9108951F93CF93DF93B8
:10058000282F30E0F901E452FF4F8491F901E8533C
:10059000FF4FD491F901EC54FF4FC491CC23C9F023
:1005A000162F81110E940801EC2FF0E0EE0FFF1FC3
:1005B000E056FF4FA591B4918FB7F894111105C083
:1005C0009C91ED2FE095E92302C0EC91ED2BEC938B
:1005D0008FBFDF91CF911F9108951F920F920FB699
:1005E0000F9211242F933F934F935F936F937F93B9
:1005F0008F939F93AF93BF93EF93FF938091AA0440
:1006000087FF05C010928500109284001BC02091C6
:10061000AA04022E000C330B80916C0590E0281781
:10062000390784F48091AA04082E000C990BFC0170
:10063000EE0FFF1F8E0F9F1FFC01E85BFA4F8081BA
:1006400086FD15C08091AA048F5F8093AA04209133
:10065000AA04022E000C330B80916C0590E0281741
:100660003907C4F48091AA048C3064F113C08091DE
:10067000AA04082E000C990BFC01EE0FFF1F8E0F31
:100680009F1FFC01E85BFA4F808160E08F730E943E
:10069000BD02D8CF8091840090918500049680346B
:1006A0009C4918F480E49CE905C0809184009091F5
:1006B0008500049690938900809388008FEF809343
:1006C000AA043BC020918400309185008091AA0447
:1006D000082E000C990BFC01EE0FFF1F8E0F9F1FC1
:1006E000FC01E85BFA4F81819281820F931F909306
:1006F0008900809388008091AA04082E000C990B31
:10070000FC01EE0FFF1F8E0F9F1FFC01E85BFA4FED
:10071000808186FF12C08091AA04082E000C990BDC
:10072000FC01EE0FFF1F8E0F9F1FFC01E85BFA4FCD
:10073000808161E08F730E94BD02FF91EF91BF91B4
:10074000AF919F918F917F916F915F914F913F9169
:100750002F910F900FBE0F901F901895CF93DF939E
:1007600090E0FC01E853FF4F2491FC01EC54FF4F53
:100770008491882361F190E0880F991FFC01EA566B
:10078000FF4FC591D491FC01E056FF4FA591B49164
:10079000611109C09FB7F8948881209582238883CE
:1007A000EC912E230BC0623061F49FB7F89438812E
:1007B000822F809583238883EC912E2B2C939FBFCF
:1007C00006C08FB7F894E8812E2B28838FBFDF9166
:1007D000CF9108951F93CF93DF93182FEB0161E022
:1007E0000E94AE03209711F460E004C0CF3FD10512
:1007F00039F461E0812FDF91CF911F910C94BD02FC
:10080000E12FF0E0E452FF4FE491E330F9F048F4D7
:10081000E130B9F0E230A1F584B5806284BDC8BD95
:1008200034C0E730E9F0E83019F1E43049F580915F
:100830008000806280938000D0938B00C0938A00F8
:1008400024C084B5806884BDC7BD1FC0809180006E
:10085000806880938000D0938900C093880015C081
:100860008091B00080688093B000C093B3000DC049
:100870008091B00080628093B000C093B40005C046
:10088000C038D1050CF0B5CFAFCFDF91CF911F911C
:1008900008958E3008F08E508770806480937C00BD
:1008A00080917A00806480937A0080917A0086FD3E
:1008B000FCCF809178002091790090E0922B0895F0
:1008C0003FB7F8948091370490913804A09139048F
:1008D000B0913A0426B5A89B05C02F3F19F00196A8
:1008E000A11DB11D3FBFBA2FA92F982F8827820FB6
:1008F000911DA11DB11DBC01CD0142E0660F771F06
:10090000881F991F4A95D1F708958F929F92AF92B1
:10091000BF92CF92DF92EF92FF926B017C010E9417
:1009200060044B015C01C114D104E104F104F1F055
:100930000E946004DC01CB0188199909AA09BB094E
:10094000883E9340A105B10570F321E0C21AD10899
:10095000E108F10888EE880E83E0981EA11CB11C06
:10096000C114D104E104F10419F7DDCFFF90EF9039
:10097000DF90CF90BF90AF909F908F9008958C01A3
:1009800080916F05909170050E94F70B80916F0523
:10099000909170050E94E60B80916D0590916E0517
:1009A000DC01ED91FC910684F785E02D099580919D
:1009B0006D0590916E05DC01ED91FC910484F58547
:1009C000E02D40E050E065E070E009956DE772E0F1
:1009D00080916D0590916E050E94E909F8013197AB
:1009E000E930F10508F069C1E55CFF4F80916D05C4
:1009F00090916E05DC010C942A1CED91FC9104840D
:100A0000F585E02D41E050E060E070E0099565E893
:100A100072E080916D0590916E050E94E9098091C8
:100A20006D0590916E05DC01ED91FC910484F585D6
:100A3000E02D42E050E060E070E0099569E072E08E
:100A400080916D0590916E050E94E90980916D0578
:100A500090916E05DC01ED91FC910484F585E02D0B
:100A600043E050E060E070E009956EE872E01FC17D
:100A7000ED91FC910484F585E02D41E050E060E0CB
:100A800070E0099569E972E080916D0590916E05BD
:100A90000E94E90980916D0590916E05DC01ED9150
:100AA000FC910484F585E02D42E050E060E070E0C8
:100AB000099563EA72E080916D0590916E050E9440
:100AC000E90980916D0590916E05DC01ED91FC9135
:100AD0000484F585E02D43E050E060E070E0099586
:100AE0006DE673E0E4C0ED91FC910484F585E02DA2
:100AF00041E050E060E070E009956CEA72E00CC003
:100B0000ED91FC910484F585E02D41E050E060E03A
:100B100070E0099561ED72E080916D0590916E0530
:100B20000E94E90980916D0590916E05DC01ED91BF
:100B3000FC910484F585E02D42E050E060E070E037
:100B400009956DEB72E0B3C0ED91FC910484F585DD
:100B5000E02D41E050E060E070E0099561EE72E068
:100B600080916D0590916E050E94E90980916D0557
:100B700090916E05DC01ED91FC910484F585E02DEA
:100B800042E050E060E070E0099561EF72E023C060
:100B9000ED91FC910484F585E02D41E050E060E0AA
:100BA00070E0099561EE72E080916D0590916E059F
:100BB0000E94E90980916D0590916E05DC01ED912F
:100BC000FC910484F585E02D42E050E060E070E0A7
:100BD000099566E173E080916D0590916E050E9424
:100BE000E90980916D0590916E05DC01ED91FC9114
:100BF0000484F585E02D43E050E060E070E0099565
:100C000062E073E054C0ED91FC910484F585E02D21
:100C100041E050E060E070E0099568E273E00CC0EC
:100C2000ED91FC910484F585E02D41E050E060E019
:100C300070E0099561E573E080916D0590916E0516
:100C40000E94E90980916D0590916E05DC01ED919E
:100C5000FC910484F585E02D42E050E060E070E016
:100C6000099564E373E080916D0590916E050E9493
:100C7000E90980916D0590916E05DC01ED91FC9183
:100C80000484F585E02D43E050E060E070E00995D4
:100C900064E473E00CC0ED91FC910484F585E02DD3
:100CA00042E050E060E070E009956EE573E080910D
:100CB0006D0590916E050E94E909C0E0D0E0C01773
:100CC000D107C4F461E0809171050E94BD0264EF18
:100CD00071E080E090E00E94850460E08091710501
:100CE0000E94BD0264EF71E080E090E00E94850404
:100CF0002196E5CF60ED77E080E090E00E948504EA
:100D0000DCCF0895CF92DF92EF92FF920F931F9363
:100D1000CF93DF936C017A018B01C0E0D0E0CE1558
:100D2000DF0589F0D8016D918D01D601ED91FC911F
:100D30000190F081E02DC6010995892B11F47E0107
:100D400002C02196ECCFC701DF91CF911F910F9187
:100D5000FF90EF90DF90CF900895FC01538D448D6C
:100D6000252F30E0842F90E0821B930B541710F056
:100D7000CF96089501970895FC01918D828D981763
:100D800061F0828DDF01A80FB11D5D968C91928D6F
:100D90009F5F9F73928F90E008958FEF9FEF08956C
:100DA000FC01918D828D981731F0828DE80FF11D35
:100DB000858D90E008958FEF9FEF0895FC01918D50
:100DC000228D892F90E0805C9F4F821B91098F7349
:100DD000992708958BEA94E00E94DE0621E0892B92
:100DE00009F420E0822F0895FC01848DDF01A80F13
:100DF000B11DA35ABF4F2C91848D90E001968F7343
:100E00009927848FA689B7892C93A089B1898C9161
:100E100080648C93938D848D981306C00288F38927
:100E2000E02D80818F7D80830895EF92FF920F9354
:100E30001F93CF93DF93EC0181E0888F9B8D8C8D86
:100E4000981305C0E889F989808185FD24C0F62EB4
:100E50000B8D10E00F5F1F4F0F731127E02E8C8D4D
:100E6000E8120CC00FB607FCFACFE889F989808137
:100E700085FFF5CFCE010E94F406F1CF8B8DFE01E8
:100E8000E80FF11DE35AFF4FF0820B8FEA89FB89CF
:100E90008081806207C0EE89FF896083E889F989D3
:100EA00080818064808381E090E0DF91CF911F9109
:100EB0000F91FF90EF900895CF93DF93EC01888D11
:100EC0008823C9F0EA89FB89808185FD05C0A8894E
:100ED000B9898C9186FD0FC00FB607FCF5CF8081D4
:100EE00085FFF2CFA889B9898C9185FFEDCFCE011E
:100EF0000E94F406E7CFDF91CF91089580E090E063
:100F0000892B29F00E94EA0681110C9400000895B3
:100F1000FC01778366835583448308958BEA94E0CC
:100F20000C941507089580E090E0089580E090E02B
:100F3000089580E090E0089580E090E0089580E0DA
:100F400090E0089580E090E00895CF92DF92EF92D4
:100F5000FF92CF93DF93FC01C281D381848195817D
:100F6000C81BD90BBE010D2E000C880B990B0E94DB
:100F7000DC1CC12CD12C20E8E22E2FE3F22E97FBB3
:100F8000F7F8D7FF03C0D195C195D109BE01645BC5
:100F90007109072E000C880B990B0E94DC1C20E0C5
:100FA00030E040E85FE397FB57F9C701B6010E94C4
:100FB0006D1D6B017C01C53BD1054CF088E691E0CD
:100FC0008C1B9D0BBC01990F880B990B04C0BE01B3
:100FD000DD0F880B990B0E94DC1C9B01AC01C70143
:100FE000B6010E946D1D0E94A41CCB01DF91CF9120
:100FF000FF90EF90DF90CF9008950F931F93CF93C2
:10100000DF938C01CAE0D0E0D801ED91FC9104801F
:10101000F581E02DC8010995F80195838483219716
:1010200099F7DF91CF911F910F910895CF93DF939F
:10103000EC01E881F9810480F581E02D09959B831D
:101040008A83DF91CF91089581E008950E94FE1D6B
:10105000CF93DF9300D0CDB7DEB71A8219820E94FA
:1010600060042091300630913106621B730BCB0176
:10107000770FAA0BBB0B80932C0690932D06A093A1
:101080002E06B0932F060E94600460933006709382
:101090003106809332069093330680912C0690910E
:1010A0002D06A0912E06B0912F06BC01CD016E5CDD
:1010B0007F4F8F4F9F4F24E630E040E050E00E948A
:1010C00078213A83298380914406909145069C01BA
:1010D0002F5F3F4F309345062093440649815A8144
:1010E000880F991FFC01E65CF94F5183408326303D
:1010F000310524F0109245061092440629813A8168
:1011000080913406909135062735310534F02981D8
:101110003A812835310554F020C049815A8126E5AD
:1011200030E0241B350B22303105BCF4019690933E
:10113000350680933406892BA1F081E090E09093EE
:101140002306809322060E948B10609328067093DA
:10115000290680932A0690932B061092350610924A
:10116000340629813A8180913606909137062630DF
:10117000310534F029813A812730310554F020C0FF
:1011800049815A8125E030E0241B350B223031059E
:10119000BCF401969093370680933606892BA1F014
:1011A0008FEF9FEF90932306809322060E948B106F
:1011B000609328067093290680932A0690932B0645
:1011C00010923706109236060F900F90DF91CF9154
:1011D00008951F920F920FB60F9211242F933F93F1
:1011E0004F935F936F937F938F939F93AF93BF932F
:1011F000EF93FF93E0910201F09103010995FF91B4
:10120000EF91BF91AF919F918F917F916F915F917E
:101210004F913F912F910F900FBE0F901F901895F7
:101220001F920F920FB60F9211242F933F934F935B
:101230005F936F937F938F939F93AF93BF93EF933E
:10124000FF93E0910001F09101010995FF91EF9169
:10125000BF91AF919F918F917F916F915F914F91CE
:101260003F912F910F900FBE0F901F901895DC01AA
:10127000ED91FC910190F081E02D099461157105CB
:1012800079F0FB0101900020E9F73197AF01461B8F
:10129000570BDC01ED91FC910280F381E02D099464
:1012A00080E090E008954F925F926F927F92EF926C
:1012B000FF920F931F93CF93DF93CDB7DEB7A19724
:1012C0000FB6F894DEBF0FBECDBF7C01FA01CB0193
:1012D00019A2223008F42AE08E010F5D1F4F422E22
:1012E000512C612C712CBF01A30192010E94AA21F3
:1012F000F901CA01015011096A3014F4605D01C09E
:10130000695CD8016C93232B242B252B61F7B80142
:10131000C7010E943E09A1960FB6F894DEBF0FBE2A
:10132000CDBFDF91CF911F910F91FF90EF907F90F4
:101330006F905F904F900895CF93DF93EC016BE631
:1013400073E00E943E09E881F9810484F585E02D6F
:1013500040E050E060E070E0CE01DF91CF91099471
:101360000F931F93CF93DF93EC010E943E098C01F2
:101370006BE673E0CE010E943E09800F911FDF9162
:10138000CF911F910F910895CF93DF93EC016DE6FC
:1013900073E00E94B00968EE73E080E090E00E9484
:1013A00085046EE673E0CE010E94B00968EE73E03A
:1013B00080E090E00E948504E881F9810484F5854D
:1013C000E02D40E050E060E070E0CE01DF91CF9191
:1013D00009940C943E09EF92FF920F931F93CF93C1
:1013E000DF93CDB7DEB729970FB6F894DEBF0FBEF7
:1013F000CDBF8C01DC0115961C921E921497179696
:101400001C921E921697ED91FC910484F585E02DB7
:1014100040E050E060E070E0099560E773E0C801EB
:101420000E94E9091F9283E08F931F928F931F926E
:1014300085E08F938CE793E09F938F93FE01319625
:101440007F01FF93EF930E94221EB701C8010E9403
:10145000E90966E873E0C8010E94E90962E973E0FE
:10146000C8010E94E909D801ED91FC910684F78535
:10147000E02DC80109950FB6F894DEBF0FBECDBFB1
:1014800029960FB6F894DEBF0FBECDBFDF91CF9186
:101490001F910F91FF90EF9008951F920F920FB63A
:1014A0000F9211242F933F934F935F936F937F93EA
:1014B0008F939F93AF93BF93EF93FF938BEA94E047
:1014C0000E94F406FF91EF91BF91AF919F918F9190
:1014D0007F916F915F914F913F912F910F900FBE30
:1014E0000F901F9018951F920F920FB60F92112414
:1014F0002F938F939F93EF93FF93E091BB04F09111
:10150000BC048081E091C104F091C20482FD12C04C
:1015100090818091C4048F5F8F732091C5048217DE
:1015200051F0E091C404F0E0E555FB4F958F8093B6
:10153000C40401C08081FF91EF919F918F912F9101
:101540000F900FBE0F901F9018950F931F93CF937E
:10155000DF93EC0118861F820AE010E08D810E9463
:1015600049042F813885820F931F98878F8361E00C
:1015700070E080E090E00E9485040150110971F74D
:101580008F8198856AE070E00E94161CCB01DF9184
:10159000CF911F910F910895AF92BF92CF92DF929A
:1015A000EF92FF920F931F93CF93DF93EC018B0188
:1015B00089859A857B01E81AF90AF7FC04C0AA24F8
:1015C000A394B12C03C0AA24AA94BA2CF7FE03C09A
:1015D000F194E194F108053611053CF40C398FEFD4
:1015E00018072CF40CE91FEF02C004E610E081E0BC
:1015F000101611060CF080E08C83C12CD12CCE1477
:10160000DF04B1F169857A856A0D7B1D7A87698768
:1016100077FF03C0719561957109072E000C880B47
:10162000990B0E94DC1C23E333E343E250E40E9465
:101630006D1D0E94A41C88810E94EA0361E08985D7
:101640009A85181619060CF060E08A810E94BD0286
:101650008D859E858230910538F0880F991F880FFF
:10166000991F05970197F1F78FEFC81AD80AC7CFCE
:101670001A870987DF91CF911F910F91FF90EF900B
:10168000DF90CF90BF90AF900895CF92DF92EF920E
:10169000FF920F931F93CF93DF93EC016536710593
:1016A0001CF47E876D8704C084E690E09E878D875A
:1016B0008D859E8597FF02C01E861D860C811D812B
:1016C00001151105B9F42D853E85121613063CF45B
:1016D0004AE0429FC001439F900D112406C046EF8F
:1016E0004203C001439F900D112488519C4F9B835E
:1016F0008A8350C001301105F1F46D857E85072E77
:10170000000C880B990B0E94DC1C23E333E343E2BB
:1017100050E40E946D1D6B017C0120E030E0A901C6
:101720000E94681D18161CF4C701B6012FC0C7011E
:10173000B60190582BC00230110561F56D857E858C
:10174000072E000C880B990B0E94DC1C23E333E36B
:1017500043E250E40E946D1D6B017C0120E030E00B
:10176000A9010E94681D18164CF4A701960160E0BB
:1017700070E08FE793E40E94371C08C020E030E05F
:101780004FE753E4C701B6010E94381C0E94A41C15
:101790007B836A8318866A817B81012B61F4CE0189
:1017A0004196DF91CF911F910F91FF90EF90DF90C5
:1017B000CF900C9431018881DF91CF911F910F91CF
:1017C000FF90EF90DF90CF900C94EA03CF93DF93DC
:1017D000EC0160E070E0888199810E94CC0A60E0B1
:1017E00070E08A819B81DF91CF910C94CC0A60E0FC
:1017F00070E0FC01848195810C94450BFC01828191
:101800000E94490420E43CE4DC010E94301C20E1F9
:1018100037E240E050E00E94AA21C90108950F93E9
:101820001F93CF93DF93EC01E881F9810484F58560
:10183000E02D40E050E060E070E009956BE973E076
:10184000CE010E94E909E881F9810484F585E02D43
:1018500040E050E067E070E0CE01099561EA73E096
:10186000CE010E94E909E881F9810484F585E02D23
:1018700040E050E06AE070E0CE0109956AEA73E06A
:10188000CE010E94E909E881F9810484F585E02D03
:1018900040E050E061E170E0CE010995E889F98906
:1018A00061E070E086819781019711F060E070E05F
:1018B000CE010E94AB0DE881F9810484F585E02D0D
:1018C00041E050E060E070E0CE01099561EB73E02B
:1018D000CE010E94E909E881F9810484F585E02DB3
:1018E00041E050E067E070E0CE0109958A859B8574
:1018F0000E94A50ABC01CE010E94AB0DE881F981CE
:101900000484F585E02D41E050E06AE070E0CE010E
:10191000099568EB73E0CE010E94E909E881F9813D
:101920000484F585E02D41E050E061E170E0CE01F6
:1019300009958C859D850E94A50ABC01CE010E9457
:10194000AB0DE881F9810484F585E02D42E050E09B
:1019500060E070E0CE0109956FEB73E0CE010E946C
:10196000E909E881F9810484F585E02D42E050E041
:101970006AE070E0CE01099508851985C8010E94CA
:10198000FE0BBC01F80195878487CE010E94AB0D48
:10199000E881F9810484F585E02D43E050E060E0C2
:1019A00070E0CE01099569EC73E0CE010E94E9096F
:1019B000E881F9810484F585E02D43E050E067E09B
:1019C00070E0CE010995EC89FD898081918181309B
:1019D000910571F02CF4892BB9F460ED73E00DC022
:1019E0008230910541F0039779F469EE73E005C008
:1019F00067ED73E002C061EE73E0CE01DF91CF913D
:101A00001F910F910C94E909DF91CF911F910F91D4
:101A100008950F931F93CF93DF93EC018B016170B7
:101A2000772788810E94BD0216950795602F617007
:101A30008A810E94BD021F8E1E8E19A218A21BA2AF
:101A40001AA21DA21CA21FA21EA21F821E82198EF4
:101A5000188E1B8E1A8E19A618A66CE370E080E013
:101A600090E0DF91CF911F910F910C948504CF935B
:101A7000DF938730910508F068C0FC01EC5BFF4FF5
:101A80000C942A1CC0E0D0E0BE018091E305909147
:101A9000E4050E94450B2196C436D105A9F784E6DA
:101AA00090E00E94B70F80E052C08FED95E00E9459
:101AB000F70B8FED95E00E94E60B83E048C08FEDB9
:101AC00095E00E94F70B8FED95E00E94E60B60E039
:101AD00070E08CE196E00E94090D8AE090E090931E
:101AE000620680936106909371068093700682E08F
:101AF0002EC08FED95E00E94F70B8FED95E00E94D0
:101B0000E60B84E024C062EF73E08BEA94E00E946D
:101B1000B0098FED95E00E94F70B84E690E00E94FB
:101B2000B70F85E014C08FED95E00E94E60B60E0F2
:101B300070E08CE196E00E94090D68E873E180E0B6
:101B400090E00E94850486E002C002C081E090E03F
:101B5000DF91CF910895CF92DF92EF92FF920F9392
:101B60001F93CF93DF936B01770FEE08FF08F7FE0B
:101B70001BC0EC016DE20E9437098C0144275527F8
:101B8000BA014C195D096E097F092AE0CE010E9455
:101B90005309800F911FDF91CF911F910F91FF90FB
:101BA000EF90DF90CF9008952AE0B701A601DF9172
:101BB000CF911F910F91FF90EF90DF90CF900C94F9
:101BC00053091092AF051092B0051092B105109212
:101BD000B2058FEF9FEF9093B4058093B305909378
:101BE000B6058093B5059093B8058093B70590939B
:101BF000BA058093B905E4E8F5E0119285E0ED3A85
:101C0000F807D9F71092BE051092BD051092750520
:101C100087EE93E09093C0058093BF05089586E01A
:101C200094E09F938F93EFEBF5E081818F93808118
:101C30008F9382E194E09F938F9384E895E09F9344
:101C40008F930E94221E8DB79EB708960FB6F89408
:101C50009EBF0FBE8DBF64E875E08BEA94E00C94E4
:101C6000B009E0918205F091830580811F928F93E6
:101C7000EFEBF5E081818F9380818F9389E194E090
:101C80009F938F9384E895E09F938F930E94221EE9
:101C90008DB79EB708960FB6F8949EBF0FBE8DBF46
:101CA00064E875E08BEA94E00C94B0090F931F93FD
:101CB000CF93DF9305E715E0D8011B96CD91DC911A
:101CC0001C97CE010E94FE0B8C879D87D8011B9626
:101CD000ED91FC911C979F938F9383858F938285C1
:101CE0008F9387818F9386818F9381858F93808552
:101CF0008F9381818F9380818F93EFEBF5E08181CA
:101D00008F9380818F9380E294E09F938F9384E8F8
:101D100095E09F938F930E94221EEDB7FEB77096B9
:101D20000FB6F894FEBF0FBEEDBF64E875E08BEA16
:101D300094E0DF91CF911F910F910C94B009CF9255
:101D4000DF92EF92FF92CF93DF936C01990FEE0831
:101D5000FF08F7FE16C06DE28BEA94E00E94370997
:101D6000EC0144275527BA014C195D096E097F091A
:101D70002AE08BEA94E00E9453097C01EC0EFD1EE0
:101D800008C02AE0B701A6018BEA94E00E9453093B
:101D90007C016BE673E08BEA94E00E943E098E0DB5
:101DA0009F1DDF91CF91FF90EF90DF90CF9008952E
:101DB000CF93DF9362ED71E08BEA94E00E94E90932
:101DC0006CE670E08BEA94E00E94AB0DC5E7D5E0CD
:101DD00069AD8BEA94E00E943709ED85FE85828526
:101DE0009385DF91CF910C949F0ECF93DF93EC01FD
:101DF0006BE38BEA94E00E94370962E070E08BEAC3
:101E000094E00E94AB0D6091AE058BEA94E00E94D5
:101E10003709BE018BEA94E0DF91CF910C94B009B1
:101E20000F931F93CF938630910534F0BC01990F27
:101E3000880B990B0E9485040091DF051091E00545
:101E4000C8010E94A50AC1E0F8012385348528173E
:101E500039070CF0C0E00091E1051091E205C801DE
:101E60000E94A50A21E0F8014385548548175907C7
:101E70000CF020E0C22B11F10E948B100091FA05AA
:101E80001091FB052091FC053091FD05DC01CB0193
:101E9000801B910BA20BB30B8093FE059093FF0563
:101EA000A0930006B09301060E948B106093FA0580
:101EB0007093FB058093FC059093FD058C2FCF91CB
:101EC0001F910F91089560E070E08091E505909179
:101ED000E6050E94090D8091E5059091E605FC015B
:101EE000268137812F3F3F4F71F461E070E00E94FF
:101EF000090DE091E505F091E60581E02681378145
:101F00002F3F3F4F09F080E008950F931F93CF9329
:101F1000DF938C01CFEDD5E08A859B8524E6289F51
:101F2000B001299F700D1124888199810E94CC0AEB
:101F30002A853B854CE94203B001439F700D112473
:101F40008A819B810E94CC0A84E1809FB001819F9D
:101F5000700D1124072E000C880B990B0E9485042C
:101F600080E090E0DF91CF911F910F9108950F9342
:101F70001F93CF93DF938C01CFEDD5E08A859B85AE
:101F8000089FB001099F700D189F700D1124888162
:101F900099810E94CC0A8A859B85089FB001099F80
:101FA000700D189F700D11248A819B81DF91CF9154
:101FB0001F910F910C94CC0A0F931F93CF93DF9333
:101FC00000271127081B190BCFEDD5E08A859B85CB
:101FD000089FB001099F700D189F700D1124888112
:101FE00099810E94CC0A8A859B85089FB001099F30
:101FF000700D189F700D11248A819B81DF91CF9104
:102000001F910F910C94CC0A0F931F93CF93DF93E2
:102010002091E9053091EA054CE94203B001439F64
:10202000700D11248091DF059091E0050E94CC0A8B
:102030008091E9059091EA0524E6289FB001299F47
:10204000700D11248091E1059091E2050E94CC0A67
:1020500068E572E080E090E00E948504C4E1D0E091
:102060000CE914E661E070E08091E5059091E605E9
:102070000E94090D8091E5059091E605FC012681FD
:1020800037812130310539F08AEF90E00E94100F3E
:10209000882381F039C060E070E00E94090DE09172
:1020A000E505F091E60586819781019769F780E063
:1020B00090E02CC02091E9053091EA050203B001BF
:1020C000039F700D11248091DF059091E0050E941F
:1020D000CC0A8091E9059091EA05189FB001199FFB
:1020E000700D11248091E1059091E2050E94CC0AC7
:1020F00068EC70E080E090E00E948504219709F090
:10210000B1CF82E090E002C081E090E0DF91CF911A
:102110001F910F9108952FB7F8946091D006709198
:10212000D1068091D2069091D3062FBF08951F92B9
:102130000F920FB60F9211242F933F938F939F937B
:10214000AF93BF938091D0069091D106A091D20613
:10215000B091D3063091CF0623E0230F2D3720F422
:102160000196A11DB11D05C026E8230F0296A11DF1
:10217000B11D2093CF068093D0069093D106A093F3
:10218000D206B093D3068091370490913804A09181
:102190003904B0913A040196A11DB11D8093370412
:1021A00090933804A0933904B0933A04BF91AF914F
:1021B0009F918F913F912F910F900FBE0F901F9085
:1021C0001895CF93DF9300D000D0CDB7DEB77894C9
:1021D00084B5826084BD84B5816084BD85B582602C
:1021E00085BD85B5816085BD80916E0081608093DD
:1021F0006E00109281008091810082608093810046
:102200008091810081608093810080918000816055
:10221000809380008091B10084608093B1008091B0
:10222000B00081608093B00080917A0084608093D8
:102230007A0080917A00826080937A0080917A009F
:10224000816080937A0080917A00806880937A0020
:102250001092C100E091BB04F091BC0482E0808345
:10226000E091B704F091B8041082E091B904F091C4
:10227000BA0480E180831092C304E091BF04F0911E
:10228000C00486E08083E091BD04F091BE048081AB
:1022900080618083E091BD04F091BE0480818860FC
:1022A0008083E091BD04F091BE04808180688083CA
:1022B000E091BD04F091BE0480818F7D808380E039
:1022C00090E00E945821882369F04CE050E061E0E2
:1022D00070E080918205909183050E94482168E614
:1022E00071E002C06CE771E08BEA94E00E94B009F3
:1022F00060E080E00E94AE0360E081E00E94AE03F7
:1023000060E082E00E94AE0360E083E00E94AE03E2
:1023100060E082E00E94AE0361E083E00E94AE03D1
:1023200061E084E00E94AE0360E085E00E94AE03BD
:1023300061E086E00E94AE0361E087E00E94AE03A8
:1023400061E088E00E94AE0360E088E00E94BD0288
:1023500061E089E00E94AE0360E089E00E94BD0276
:1023600061E08AE00E94AE0361E08BE00E94AE0370
:1023700061E08CE00E94AE0361E08DE00E94AE035C
:102380008CEB92E09093600680935F0690936F06CB
:1023900080936E0684E690E0909382068093810697
:1023A00080910A0190910B01909347068093460615
:1023B00080910C0190910D0190934D0680934C06F5
:1023C00080910E0190910F0190934F0680934E06DD
:1023D00080911001909111019093510680935006C5
:1023E00089EC95E00E94EB09809176069091770642
:1023F000892B09F072C010917206809183068C308F
:1024000008F053C061E0812F0E94AE03E091830683
:10241000AE2FB0E0CD01880F991FA80FB91FA85BA0
:10242000BA4F912F9F738C91807C892B8C93109243
:102430008406109285068E2F6CE00E94F61B2CE01D
:10244000829FB001112440E050E09A01260F371F0F
:10245000D901AA0FBB1F2A0F3B1FD901A85BBA4F96
:102460009C9196FD16C04F5F5F4F4C30510569F748
:1024700081110FC01092800082E080938100109241
:10248000850010928400B19A80916F0082608093E1
:102490006F008E2F90E0FC01EE0FFF1FE80FF91F79
:1024A000E85BFA4F80818064808360ED77E083E8A9
:1024B00096E00E94310160E971E080E090E00E94C6
:1024C000850468EE73E083E896E00E94310160EDD8
:1024D00077E080E090E00E94850480911001909167
:1024E0001101909351068093500680910C019091B8
:1024F0000D0190934D0680934C0680910E019091B2
:102500000F0190934F0680934E0686E496E00E945A
:10251000FE0B909353068093520688E298E09093C6
:1025200001018093000180916900836080936900BC
:10253000E89A60E070E08CE196E00E94090D8091DD
:102540004A060E949402892B19F083E090E002C0B1
:1025500080E090E00E94370D909307018093060180
:1025600084E090E00E94370D90930701809306016C
:102570007AE0272E312CEEE14E2E512C612C712C5D
:1025800010917505112309F43DC26091AD05062E29
:10259000000C770B84E895E00E94171E009731F03D
:1025A000845895408F3F4FEF940741F48FEF9FEF92
:1025B0009093C2058093C10510E005C001969093E9
:1025C000C2058093C10510937505112309F480C0DD
:1025D0008090C1059090C2052091C3053091C4053B
:1025E000D401AC57BA4F6D01E12CF12C5701A80C66
:1025F000B91C68E2A616B10408F049C09601F601BC
:1026000041916F01042F042E000C110BC8012A8385
:102610003C8349830E94061E2A813C814981892B83
:1026200029F02093C3053093C4052FC0C801C0977B
:102630000A9740F4F701EB58FA4F42AFFFEFEF1A59
:10264000FF0AD4CF2093C3053093C405442321F05F
:102650008091AE05481312C0B092C205A092C10588
:102660008FEA95E00E9422219093C0058093BF05D8
:1026700021E02B83873E934071F407C0B8016B566D
:102680007E4F8BEA94E00E94B0091B8204C0209325
:10269000C3053093C4058B8180937505882309F4A5
:1026A00081C01092AF051092B0051092B105109242
:1026B000B2050091C1051091C20558019FEFA91AFA
:1026C000B90A9090AE050B571A4FC12CD12C25C0DA
:1026D00060EB71E069C01093C4050093C305D80195
:1026E0008D908D01E82C082C000CFF08C7010E947A
:1026F000061E892B09F050C0B0E3EB1AF108EAE09E
:10270000EE16F10478F4F601EB58FA4F82AEFFEFC3
:10271000CF1ADF0A6FEFA61AB60A88E2A816B1042C
:10272000D0F238C0891021C0E090BB05F090BC0504
:102730008FEA95E00E942221F701EE0FFF1FED5472
:10274000FA4F918380832FEFE21AF20AF092BC05D0
:10275000E092BB051092AF051092B0051092B10542
:102760001092B205C12CD12CD5CF4DE0841611F0BA
:10277000811012C0E090BB05F090BC058FEA95E097
:102780000E942221F701EE0FFF1FED54FA4F9183B3
:102790008083C0CF8B8101C080E08093750581115B
:1027A00008C021C168EB71E08BEA94E00E94E9095E
:1027B0001AC18091BF059091C0058636910509F434
:1027C00077C084F48B30910579F11CF40A97F1F10C
:1027D00003C18436910509F460C08536910509F47A
:1027E0005FC0FAC08C36910509F4E6C04CF4873618
:1027F000910509F460C08836910509F493C0ECC0D6
:102800008D36910509F4DBC0863E934009F0E4C0A3
:1028100064ED71E08BEA94E00E94B00960E080E032
:1028200090E00E946A21DCC08091B3059091B405CC
:102830008830910508F07EC5E091C505F091C60588
:102840009183808381E08093C70574C568EC71E053
:102850008BEA94E00E94E909E091C505F091C60574
:10286000608171818BEA94E00E94AB0D63EC71E0B2
:102870008BEA94E00E94E909E0918005F0918105DE
:1028800084810E94940221E030E0892B11F420E041
:1028900030E0C9010E949F0EA3C00E94310EA0C06B
:1028A0008091B5059091B605019609F095C033C5A4
:1028B0000E94560E95C08091B3059091B405E091A9
:1028C0008005F0918105918380832091B505309139
:1028D000B605318720872091B7053091B805378339
:1028E00026832091B9053091BA0533872287E0917C
:1028F0008205F0918305938382838091B70590913F
:10290000B805958384838091B5059091B60597832A
:1029100086838091B9059091BA05918780870E943E
:10292000560E08C56091B3057091B4056F3FEFEF87
:102930007E0709F451C080917C0590917D050E942D
:10294000090D62ED71E08BEA94E00E94E909609163
:10295000BF057091C0058BEA94E00E94AB0D6AE35D
:102960008BEA94E00E9437096091B3057091B40539
:102970008BEA94E00E94AB0D00E010E06AE38BEA82
:1029800094E00E94370920917C0530917D05C801B3
:102990000F96880F991FF901E80FF91F6081718167
:1029A0008BEA94E00E94AB0D0F5F1F4F05301105BD
:1029B00029F76DE673E0E6C40E94D80E11C0E091DD
:1029C0008205F09183058091B3059091B4059387BA
:1029D00082870E94D80EAEC40E940F0E0E94E10DA5
:1029E0000E94E10D02C00E940F0E0E94E10D41C045
:1029F0008BEA94E00E94BC06182F8D3051F481E0E0
:102A0000809375058BEA94E00E94DE06892B81F79E
:102A100030C08A30A1F3082E000C990B0E94101EC2
:102A2000892B29F18091BD059091BE0588978CF086
:102A30006CEE71E08BEA94E00E94B009E4E8F5E006
:102A4000119225E0ED3AF207D9F71092BE051092E7
:102A5000BD052091BD053091BE05F901EB58FA4F37
:102A600017872F5F3F4F3093BE052093BD0580E051
:102A7000C7CF8091C705882361F0809106019091AE
:102A800007010E94370D9093070180930601109271
:102A9000C7050091520610915306C80165E070E029
:102AA0000E94021C061B170B86E496E00E94FE0B98
:102AB00065E070E00E94021C060F171F109353067A
:102AC00000935206809135049091360401969093BC
:102AD00036048093350469E170E00E94161C892B4E
:102AE00009F04EC080910901882309F445C00E9475
:102AF0008B1020918606309187068B01021B130BE9
:102B00006BE38BEA94E00E94370961E070E08BEAA6
:102B100094E00E94AB0D6091AE058BEA94E00E94B8
:102B20003709E091C505F091C605608171818BEA96
:102B300094E00E94AB0D6091AE058BEA94E00E9498
:102B40003709E0908005F0908105C7010E94FE0BD7
:102B5000D7011D969C938E931C97BC018BEA94E041
:102B60000E94AB0D6091AE058BEA94E00E9437099C
:102B7000C8010E949F0E04C089EC95E00E940F0CD2
:102B80000E948B1060938606709387068093880658
:102B900090938906E091DF05F091E005418552852B
:102BA000E091E105F091E205218532858091EB0508
:102BB0009091EC05840F951F821B930B1816190634
:102BC00014F40A9701C00A969093EC058093EB05E4
:102BD0008091EB059091EC051816190624F48131CB
:102BE000974244F449C0919581959109813197426A
:102BF0000CF442C05093EE054093ED053093F00580
:102C00002093EF05E091E305F091E4058585968535
:102C10009093F2058093F10584E690E00E94DC0F2A
:102C200068EE73E080E090E00E9485048FED95E00F
:102C30000E94E60B6091ED057091EE058091DF0535
:102C40009091E0050E94CC0A6091EF057091F0052B
:102C50008091E1059091E2050E94CC0A6091F10516
:102C60007091F2058091E3059091E4050E94450B77
:102C70001092EC051092EB05E0910601F09107012E
:102C8000E730F10508F044C3EC5CFF4F0C942A1CBC
:102C90008091350490913604019690933604809388
:102CA000350468EC70E080E090E00E94850430C359
:102CB00000E010E0FF24F394B8018CE196E00E945C
:102CC000090D8091220690912306019709F48BC08B
:102CD0008091090181110DC00115110519F464E0FD
:102CE00072E002C061E172E08BEA94E00E94B009F8
:102CF0000EC08091C805882351F00115110519F403
:102D00008FE192E002C08CE292E00E94F50E8FED1E
:102D100095E00E94E60B2091520630915306809177
:102D20004E0690914F062817390748F485E090E049
:102D30000E94370D90930701809306015AC0011538
:102D40001105D9F40E94C7191816190664F584E60E
:102D500090E00E94DC0F68EE73E080E090E00E945B
:102D600085048FED95E00E94E60B0E94C7191816A6
:102D70001906CCF481E090E032C00E9404101816CD
:102D800019068CF484E690E00E94DC0F68EE73E094
:102D900080E090E00E9485048FED95E00E94E60BB4
:102DA0000E940410E4CF82E096E00E94FD070E949A
:102DB000630F8823B1F084E690E00E94DC0F68EE98
:102DC00073E080E090E00E9485048FED95E00E9422
:102DD000E60B0E94630F882321F084E090E00E94BC
:102DE000BF04F09234040130110519F001E010E045
:102DF00063CF84E690E00E94B70F82E096E00E94E5
:102E00001608E091DF05F091E005C184D284D7FE79
:102E100003C0D194C194D1087601E091E105F0910D
:102E2000E2050185128517FF03C01195019511096F
:102E30008091E7059091E805DC01ED91FC9100841B
:102E4000F185E02D099597FF10C0B801110F880B8F
:102E5000990B0E94DC1C26E636E646E65FE30E94FC
:102E60006D1D0E94A41C8B011DC08091E7059091EF
:102E7000E805DC01ED91FC910084F185E02D0995D8
:102E8000181619067CF4B601DD0C880B990B0E940C
:102E9000DC1C26E636E646E65FE30E946D1D0E94D6
:102EA000A41C7B018091E9059091EA05E89EB001A0
:102EB000E99E700DF89E700D11248091DF059091B0
:102EC000E0050E94CC0A8091E9059091EA05089FEF
:102ED000B001099F700D189F700D11248091E105BC
:102EE0009091E2050E94CC0A80913404882349F035
:102EF0008CE291E0909305018093040110923404D8
:102F000004C0109205011092040180910401909177
:102F100005010E94100F882309F4FAC1809109016C
:102F2000811106C06AE372E08BEA94E00E94E9092D
:102F300084E690E00E94DC0F05E010E060E070E0C5
:102F40008091E5059091E6050E94090D8091E505C7
:102F50009091E605FC01268137812130310579F415
:102F600061E070E00E94090DE091E505F091E60551
:102F700086819781019719F401501109F9F68AE5C4
:102F800090E00E94850F82E096E00E94FD0784E6B3
:102F900090E00E94B70FBCC184E690E00E94DC0F75
:102FA00068E57BE180E090E00E9485048FED95E08C
:102FB0000E94E60B0E941421A30192010E94782135
:102FC000DC01CB014E96A11DB11D0E94850F68EC5E
:102FD00070E080E090E00E94850406EA10E0E09056
:102FE000DF05F090E005C7010E94A50AD7011B96F6
:102FF0002D913C911C9728173907ACF482E096E09C
:103000000E94FD0780E090E00E94370D9093070139
:103010008093060186E496E00E94FE0B909353068F
:103020008093520675C1E090E105F090E205C7017A
:103030000E94A50AF7012385348528173907F4F281
:10304000E091E505F091E605C484D584E684F78433
:10305000F0E2CF0EFEE4DF1EE11CF11C0E948B109B
:10306000C616D706E806F90648F264E170E080E08B
:1030700090E00E9485040150110909F0B0CFBECF45
:1030800080E090E00E94100F882351F084E690E0E9
:103090000E94DC0F68EE73E080E090E00E948504FF
:1030A0002091120130911301E091E505F091E605C0
:1030B00061E086819781019709F060E08091F505D4
:1030C000861721F01092F4051092F3056093F50530
:1030D0008091DF059091E0054091F3055091F40552
:1030E000611109C08901041B150B24E630E0053687
:1030F00011051CF404C0241B350B04E610E0253632
:10310000310514F024E630E04F5F5F4F5093F40533
:103110004093F3052E3C4FEF340714F42EEC3FEFB1
:103120004091E9055091EA05249FB001259F700D5B
:10313000349F700D11240E94CC0A0E3C6FEF1607CD
:1031400014F40EEC1FEF8091E9059091EA05089FB9
:10315000B001099F700D189F700D11248091E10539
:103160009091E2050E94CC0A10923B0610923A061A
:1031700010923D0610923C0610923F0610923E06B9
:103180001092410610924006109243061092420699
:1031900010922306109222061092350610923406E1
:1031A0001092370610923606109245061092440689
:1031B00080914A060E949402892B09F4A9C08FEDE0
:1031C00095E00E94E60B1092EC051092EB0583E06F
:1031D00090E098C0309262062092610630927106AB
:1031E0002092700686E496E00E94FE0B20914C0629
:1031F00030914D062817390730F481E090E0909324
:1032000007018093060180914A060E9494028C0176
:1032100062E370E080E090E00E948504012B09F0F9
:1032200077C084E190E00E94DC0F68EC70E080E001
:1032300090E00E9485048FED95E00E94E60B62E32A
:1032400070E080E090E00E94850484E190E00E94BC
:10325000B70F60E971E080E090E00E9485048FED97
:1032600095E00E94E60B54C000E010E0B8018CE14C
:1032700096E00E94090D8091220690912306019705
:1032800051F18FED95E00E94E60B6AE472E08BEA63
:1032900094E00E94B00968EB7BE080E090E00E943F
:1032A00085040115110549F465E572E08BEA94E0A7
:1032B0000E94B00982E090E008C06BE572E08BEA02
:1032C00094E00E94B00986E090E00E94370D909350
:1032D00007018093060101301105D1F001E010E0F3
:1032E000C5CF8091220690912306019729F482E0B0
:1032F00090E00E94850F0CC08FED95E00E94E60BD8
:1033000082E090E00E94370D9093070180930601C0
:103310000E947E0735C9E0918205F091830521E086
:103320008091B3059091B405019709F020E02083C6
:103330000E94310E62E672E08BEA94E00E94E90995
:103340000E948B106B017C014CE050E061E070E06A
:1033500080918205909183050E94602161E080E068
:1033600090E00E946A210E948B10AB01BC014C19B5
:103370005D096E097F092AE08BEA94E00E945309F7
:103380006EE672E08BEA94E00E94B00929CBCF93FD
:10339000DF938EE190E00E94850FC4E1D0E060E011
:1033A00070E08091E5059091E6050E94090D8091FD
:1033B000E5059091E605FC01268137812130310534
:1033C00039F08AEF90E00E94100F882381F018C036
:1033D00061E070E00E94090DE091E505F091E605DD
:1033E00086819781019769F780E090E00BC08AE0C1
:1033F00090E00E94850F219791F682E090E002C054
:1034000081E090E0DF91CF9108954F925F926F92AB
:103410007F928F929F92AF92BF92CF92DF92EF9264
:10342000FF920F931F93CF93DF9310928D0610920C
:103430008C0688EE93E0A0E0B0E080938E06909337
:103440008F06A0939006B09391062CE131E0309363
:103450008B0620938A061092AE041092AD048093DE
:10346000AF049093B004A093B104B093B2048EE281
:1034700091E09093AC048093AB0485EC90E0909342
:10348000B8048093B70484EC90E09093BA048093DE
:10349000B90480EC90E09093BC048093BB0481EC71
:1034A00090E09093BE048093BD0482EC90E09093F2
:1034B000C0048093BF0486EC90E09093C204809394
:1034C000C1041092C4041092C5041092C604109254
:1034D000C7040E948B106093CB067093CC06809338
:1034E000CD069093CE060E948B1060938606709353
:1034F0008706809388069093890680916C058C30AE
:10350000A0F491E0980F90936C058093830690E06F
:10351000FC01EE0FFF1F8E0F9F1FFC01E85BFA4FAF
:1035200088EB9BE09283818303C08FEF80938306B7
:1035300082E7E82E86E0F82E66246394712C709260
:1035400077066092760686E090E09093730680930B
:10355000720683E090E090937C0680937B0623E6DE
:10356000C22E26E0D22E90936406809363068CE0F0
:1035700090E090936606809365061092690610921B
:1035800068063AE0432E512C509271064092700624
:1035900044E5A42E46E0B42E8BE090E090935506CF
:1035A000809354068DE090E09093570680935606E2
:1035B00070925A06609259065092620640926106D5
:1035C00056E4852E56E0952E80910A0190910B01CC
:1035D000909347068093460682E090E090934906D8
:1035E0008093480685E090E090934B0680934A06CE
:1035F0000CE116E087E090E090931D0680931C0696
:1036000084E090E090931F0680931E06C2E0D6E00F
:1036100086E591E090930306809302061092F405EC
:103620001092F3051092F5050E948B106093F60539
:103630007093F7058093F8059093F905B092E00533
:10364000A092DF05D092E205C092E105F092E40578
:10365000E092E3051093E6050093E505D093E805B5
:10366000C093E7057092EA056092E9051092EC05B7
:103670001092EB051092CC051092CB0580E491E0FE
:103680009093CA058093C9059092D2058092D10586
:10369000B092D405A092D305D092D605C092D5059C
:1036A000F092D805E092D7051093DA050093D9057A
:1036B000D093DC05C093DB0586E091E09093DE05B6
:1036C0008093DD05B0929706A0929606D092990657
:1036D000C0929806F0929B06E0929A0610939D067F
:1036E00000939C06D0939F06C0939E069092A106DD
:1036F0008092A0061092A3061092A2061092A50630
:103700001092A406109275052DE02093AC052BE3D2
:103710002093AD052AE32093AE0528E0E3EBF5E026
:10372000DF011D922A95E9F72FEF3FEF3093B405A3
:103730002093B3051092BC051092BB051092BE05F4
:103740001092BD0527EE33E03093C0052093BF05EE
:103750001092C70521E02093C805B0927705A0928A
:103760007605D0927905C0927805F0927B05E092BB
:103770007A0510937D0500937C05D0937F05C09357
:103780007E05909281058092800528E031E030939B
:103790008305209382059093C6058093C50589EC27
:1037A00095E090936E0580936D055092720540925E
:1037B00071058FED95E09093700580936F0585E717
:1037C00095E09093740580937305DF91CF911F91DD
:1037D0000F91FF90EF90DF90CF90BF90AF909F90B0
:1037E0008F907F906F905F904F900895991B79E034
:1037F00004C0991F961708F0961B881F7A95C9F781
:1038000080950895AA1BBB1B51E107C0AA1FBB1FCF
:10381000A617B70710F0A61BB70B881F991F5A955C
:10382000A9F780959095BC01CD01089597FB072ECF
:1038300016F4009407D077FD09D00E94021C07FC03
:1038400005D03EF4909581959F4F089570956195B0
:103850007F4F0895EE0FFF1F0590F491E02D09941E
:103860000E94CC21B7FF0895821B930B08955058F6
:10387000BB27AA270E944F1C0C942E1D0E94201DBE
:1038800038F00E94271D20F039F49F3F19F426F4E8
:103890000C941D1D0EF4E095E7FB0C94171DE92F09
:1038A0000E943F1D58F3BA176207730784079507F4
:1038B00020F079F4A6F50C94611D0EF4E0950B2E22
:1038C000BA2FA02D0B01B90190010C01CA01A00172
:1038D0001124FF27591B99F0593F50F4503E68F1CD
:1038E0001A16F040A22F232F342F4427585FF3CF0E
:1038F000469537952795A795F0405395C9F77EF4DF
:103900001F16BA0B620B730B840BBAF09150A1F027
:10391000FF0FBB1F661F771F881FC2F70EC0BA0FAD
:10392000621F731F841F48F4879577956795B79535
:10393000F7959E3F08F0B0CF9395880F08F0992730
:10394000EE0F9795879508950E94AB1C6894B1116E
:103950000C94621D08950E94471D88F09F5798F0AF
:10396000B92F9927B751B0F0E1F0660F771F881F84
:10397000991F1AF0BA95C9F714C0B13091F00E949E
:10398000611DB1E008950C94611D672F782F882781
:10399000B85F39F0B93FCCF3869577956795B395C5
:1039A000D9F73EF490958095709561957F4F8F4F34
:1039B0009F4F0895E89409C097FB3EF49095809539
:1039C000709561957F4F8F4F9F4F9923A9F0F92FE5
:1039D00096E9BB279395F695879577956795B79563
:1039E000F111F8CFFAF4BB0F11F460FF1BC06F5F49
:1039F0007F4F8F4F9F4F16C0882311F096E911C05B
:103A0000772321F09EE8872F762F05C0662371F07B
:103A100096E8862F70E060E02AF09A95660F771F8F
:103A2000881FDAF7880F9695879597F9089597F983
:103A30009F6780E870E060E008959FEF80EC089554
:103A400000240A941616170618060906089500247D
:103A50000A9412161306140605060895092E0394F7
:103A6000000C11F4882352F0BB0F40F4BF2B11F46B
:103A700060FF04C06F5F7F4F8F4F9F4F089557FDCA
:103A80009058440F551F59F05F3F71F04795880FCC
:103A900097FB991F61F09F3F79F087950895121663
:103AA00013061406551FF2CF4695F1DF08C016160F
:103AB00017061806991FF1CF8695710561050894C0
:103AC0000895E894BB2766277727CB0197F90895D7
:103AD0000E94DA1D08F48FEF08950E94801D0C9457
:103AE0002E1D0E94201D38F00E94271D20F09523D6
:103AF00011F00C94171D0C941D1D11240C94621DC3
:103B00000E943F1D70F3959FC1F3950F50E0551F24
:103B1000629FF001729FBB27F00DB11D639FAA2722
:103B2000F00DB11DAA1F649F6627B00DA11D661F71
:103B3000829F2227B00DA11D621F739FB00DA11D92
:103B4000621F839FA00D611D221F749F3327A00D4C
:103B5000611D231F849F600D211D822F762F6A2FE8
:103B600011249F5750409AF0F1F088234AF0EE0F4D
:103B7000FF1FBB1F661F771F881F91505040A9F77A
:103B80009E3F510580F00C94171D0C94621D5F3F01
:103B9000E4F3983ED4F3869577956795B795F795B6
:103BA000E7959F5FC1F7FE2B880F911D969587952E
:103BB00097F90895990F0008550FAA0BE0E8FEEF5A
:103BC00016161706E807F907C0F012161306E407E1
:103BD000F50798F0621B730B840B950B39F40A26DA
:103BE00061F0232B242B252B21F408950A2609F4B8
:103BF000A140A6958FEF811D811D089581E090E081
:103C0000F8940C94122285FD0C9417208062911177
:103C10000C94172081568A51D8F70895803209F004
:103C200091110C94172080528F55D8F70895FC01FC
:103C30008191861721F08823D9F799270895319724
:103C4000CF010895AEE0B0E0E8E2FEE10C94E92196
:103C50000D891E8986E08C831A8309838FEF9FE785
:103C60009E838D83AE01475E5F4F6F89788DCE0155
:103C700001960E94451E2F813885F801E20FF31F3F
:103C800010822E96E4E00C940522ACE0B0E0EBE468
:103C9000FEE10C94DB217C016B018A01FC0117829F
:103CA0001682838181FFBDC1CE0101964C01F701CF
:103CB0009381F60193FD859193FF81916F01882394
:103CC00009F4ABC1853239F493FD859193FF81915D
:103CD0006F01853229F4B70190E00E943020E7CFD0
:103CE000512C312C20E02032A0F48B3269F030F4DA
:103CF000803259F0833269F420612CC08D3239F062
:103D0000803339F4216026C02260246023C02860FB
:103D100021C027FD27C030ED380F3A3078F426FF58
:103D200006C0FAE05F9E300D1124532E13C08AE0C6
:103D3000389E300D1124332E20620CC08E3221F4B7
:103D400026FD6BC1206406C08C3611F4206802C0C9
:103D5000883641F4F60193FD859193FF81916F01BF
:103D60008111C1CF982F9F7D9554933028F40C5F1B
:103D70001F4FFFE3F9830DC0833631F0833771F0B5
:103D8000833509F05BC022C0F801808189830E5F12
:103D90001F4F44244394512C540115C03801F2E0C4
:103DA0006F0E711CF801A080B18026FF03C0652D45
:103DB00070E002C06FEF7FEFC5012C870E942520C5
:103DC0002C0183012C852F77222E17C03801F2E0B9
:103DD0006F0E711CF801A080B18026FF03C0652D15
:103DE00070E002C06FEF7FEFC5012C870E941A20A0
:103DF0002C012C852068222E830123FC1BC0832DDF
:103E000090E048165906B0F4B70180E290E00E94B5
:103E100030203A94F4CFF50127FC859127FE81915B
:103E20005F01B70190E00E94302031103A94F1E038
:103E30004F1A51084114510471F7E5C0843611F04E
:103E4000893639F5F80127FF07C0608171818281C9
:103E500093810C5F1F4F08C060817181072E000C99
:103E6000880B990B0E5F1F4F2F76722E97FF09C09C
:103E700090958095709561957F4F8F4F9F4F2068EB
:103E8000722E2AE030E0A4010E946820A82EA81813
:103E900044C0853729F42F7EB22E2AE030E025C0B9
:103EA000F22FF97FBF2E8F36C1F018F4883579F0E4
:103EB000B4C0803719F0883721F0AFC02F2F2061B0
:103EC000B22EB4FE0DC08B2D8460B82E09C024FF25
:103ED0000AC09F2F9660B92E06C028E030E005C0CA
:103EE00020E130E002C020E132E0F801B7FE07C077
:103EF00060817181828193810C5F1F4F06C0608158
:103F0000718180E090E00E5F1F4FA4010E94682045
:103F1000A82EA818FB2DFF777F2E76FE0BC0372D1D
:103F20003E7FA51450F474FE0AC072FC08C0372D01
:103F30003E7E05C0BA2C372D03C0BA2C01C0B52C6B
:103F400034FF0DC0FE01EA0DF11D8081803311F4B4
:103F5000397E09C032FF06C0B394B39404C0832FE6
:103F6000867809F0B39433FD13C030FF06C05A2C95
:103F7000B31418F4530C5B18B32CB31468F4B701E2
:103F800080E290E03C870E943020B3943C85F5CFDE
:103F9000B31410F43B1801C0312C34FF12C0B70128
:103FA00080E390E03C870E9430203C8532FF17C0C0
:103FB00031FD03C088E790E002C088E590E0B701DA
:103FC0000CC0832F867859F031FF02C08BE201C00C
:103FD00080E237FD8DE2B70190E00E943020A51409
:103FE00038F4B70180E390E00E9430205A94F7CF74
:103FF000AA94F401EA0DF11D8081B70190E00E94BE
:104000003020A110F5CF332009F451CEB70180E262
:1040100090E00E9430203A94F6CFF7018681978194
:1040200002C08FEF9FEF2C96E2E10C94F7219927C5
:1040300088270895FC010590615070400110D8F761
:10404000809590958E0F9F1F0895FC0161507040E0
:1040500001900110D8F7809590958E0F9F1F0895BD
:104060000F931F93CF93DF93FB01238121FD03C0A7
:104070008FEF9FEF28C022FF16C046815781248111
:1040800035814217530744F4A081B1819D012F5F10
:104090003F4F318320838C93268137812F5F3F4FA1
:1040A0003783268310C0EB01092F182F0084F18578
:1040B000E02D0995892BE1F68E819F8101969F83E2
:1040C0008E83812F902FDF91CF911F910F910895B3
:1040D000FA01AA27283051F1203181F1E8946F9339
:1040E0006E7F6E5F7F4F8F4F9F4FAF4FB1E03ED0DF
:1040F000B4E03CD0670F781F891F9A1FA11D680F7D
:10410000791F8A1F911DA11D6A0F711D811D911DAF
:10411000A11D20D009F468943F912AE0269F112424
:104120003019305D3193DEF6CF010895462F477088
:10413000405D4193B3E00FD0C9F7F6CF462F4F70E3
:10414000405D4A3318F0495D31FD4052419302D041
:10415000A9F7EACFB4E0A6959795879577956795E7
:10416000BA95C9F700976105710508959B01AC01E7
:104170000A2E06945795479537952795BA95C9F70E
:10418000620F731F841F951FA01D08958F929F9229
:10419000AF92BF92CF92DF92EF92FF92CF93DF93D5
:1041A000EC01688179818A819B81611571058105A6
:1041B000910521F464E279ED8BE597E02DE133EF91
:1041C00041E050E00E94782149015A019B01AC0175
:1041D000A7EAB1E40E9497216B017C01ACEEB4EF39
:1041E000A50194010E94A521DC01CB018C0D9D1D30
:1041F000AE1DBF1DB7FF03C00197A109B04888835A
:104200009983AA83BB83BC01CD019F77DF91CF91B6
:10421000FF90EF90DF90CF90BF90AF909F908F90E6
:1042200008950E94C620089584E191E00E94C6206E
:104230000895609314017093150180931601909373
:1042400017010895FC0188279927E89421912032CD
:10425000E9F3293010F02E30C8F32B3241F02D3223
:1042600039F4689404C00E944021820F911D21916D
:1042700020532A30C0F31EF4909581959F4F0895E6
:104280007AE0979F902D879F802D910D112408959E
:10429000DC01CB01FC01F999FECF06C0F2BDE1BD06
:1042A000F89A319600B40D9241505040B8F70895F5
:1042B000F999FECF92BD81BDF89A992780B50895EE
:1042C000DC01CB0103C02D910E946B214150504075
:1042D000D0F70895262FF999FECF1FBA92BD81BD60
:1042E00020BD0FB6F894FA9AF99A0FBE0196089578
:1042F000052E97FB1EF400940E948F2157FD07D0D6
:104300000E94AA2107FC03D04EF40C948F215095F3
:104310004095309521953F4F4F4F5F4F08959095B1
:104320008095709561957F4F8F4F9F4F08950E94A4
:10433000CC21A59F900DB49F900DA49F800D911D41
:1043400011240895B7FF0C9497210E949721821B96
:10435000930B0895A1E21A2EAA1BBB1BFD010DC0F1
:10436000AA1FBB1FEE1FFF1FA217B307E407F50725
:1043700020F0A21BB30BE40BF50B661F771F881F01
:10438000991F1A9469F760957095809590959B0197
:10439000AC01BD01CF010895A29FB001B39FC00140
:1043A000A39F700D811D1124911DB29F700D811D61
:1043B0001124911D08952F923F924F925F926F9218
:1043C0007F928F929F92AF92BF92CF92DF92EF92A5
:1043D000FF920F931F93CF93DF93CDB7DEB7CA1B26
:1043E000DB0B0FB6F894DEBF0FBECDBF09942A8851
:1043F000398848885F846E847D848C849B84AA84F9
:10440000B984C884DF80EE80FD800C811B81AA8185
:10441000B981CE0FD11D0FB6F894DEBF0FBECDBF50
:08442000ED010895F894FFCFAF
:10442800810681062C01040000010200E804100442
:104438004C0428000100000000000000F700E30021
:104448009307D500DC00D900D6000000000015074E
:104458008206AD065C07DE06BC06D006000000003A
:104468008E07820693079207EB090F0C88079C09B1
:10447800C4090000000024081608A207FD07A507C4
:104488009F079C07990796074CC3A4737465206619
:1044980072C3A56E20656570726F6D004CC3A473FE
:1044A800746520696E7465206672C3A56E206565A3
:1044B80070726F6D0048697420626F726465206D58
:1044C800616E20696E7465206B6F6D6D612E2E00B4
:1044D8004E4F2053594E43004E4F20636F6D6D6110
:1044E8006E640020646F636B7374617465203D3D76
:1044F80020003B0053C3A47474657220627974650C
:104508002074696C6C2066616C7365006275666600
:1045180065722066756C6C2E2E20636C65617269FD
:104528006E670A004C656674206F757473696465FC
:10453800005269676874206F757473696465004C0C
:10454800656674204F75747369646500526967689D
:1045580074204F75747369646500576865656C20CD
:104568006F7665726C6F6164200042574620484937
:1045780054544144004C454654200072696768749D
:104588002000446574746120746F673A2000206DC0
:10459800696C6C6973656B756E64657200457272DF
:1045A8006F722121004D6F77657220697300426F29
:1045B800756E646172696573004E6F205369676E2A
:1045C800616C0046726F6D20424657004F766572E7
:1045D8006C6F61646564207269676874006D6F74DC
:1045E8006F72207768696C6520646F636B696E67AA
:1045F800004F7665726C6F61646564206C656674E3
:10460800004661696C656420746F20616C69676E2F
:104618000070657270656E642E206C656674207417
:104628006F0077697265207768696C6520747261BC
:10463800636B696E670070657270656E642E2072B8
:104648006967687420746F004C6566742073656EC2
:10465800736F720074726967676572656420776842
:10466800696C650057616974416E64436865636B82
:104678000052696768742073656E736F72004D6FBE
:104688007765722074696C746564000D0A002A00ED
:1046980053572076657273696F6E3A0025642E252C
:1046A800642E256420004175672032352032303170
:1046B800370031353A35353A34340053656E733A3C
:1046C8000044697361626C656400496E4F75743AA1
:1046D800004C4D6F746F3A00524D6F746F3A004240
:1046E80061747420536F633A0053746174653A00BF
:1046F8004D4F57494E47004C41554E4348494E4748
:1047080000444F434B494E47004348415247494EA6
:104718004700505245444F434B2E2E20686974740D
:1047280061204257460020495320494E56414C4982
:1047380044003B25693A2573003B25693A25690001
:104748003B25693A25693A25693A25693A25693A3E
:0447580025690000CF
:00000001FF
